{
  "contractName": "HealthCare",
  "abi": [
    {
      "inputs": [],
      "stateMutability": "nonpayable",
      "type": "constructor"
    },
    {
      "anonymous": false,
      "inputs": [
        {
          "indexed": false,
          "internalType": "address",
          "name": "Doctor",
          "type": "address"
        }
      ],
      "name": "DoctorAdded",
      "type": "event"
    },
    {
      "anonymous": false,
      "inputs": [
        {
          "indexed": false,
          "internalType": "address",
          "name": "Doctor",
          "type": "address"
        },
        {
          "indexed": false,
          "internalType": "uint256",
          "name": "Fee",
          "type": "uint256"
        }
      ],
      "name": "FeeChanged",
      "type": "event"
    },
    {
      "anonymous": false,
      "inputs": [
        {
          "indexed": false,
          "internalType": "address",
          "name": "Patient",
          "type": "address"
        }
      ],
      "name": "PatientAdded",
      "type": "event"
    },
    {
      "anonymous": false,
      "inputs": [
        {
          "indexed": false,
          "internalType": "address",
          "name": "Patient",
          "type": "address"
        },
        {
          "indexed": false,
          "internalType": "string",
          "name": "FileHash",
          "type": "string"
        },
        {
          "indexed": false,
          "internalType": "string",
          "name": "FileData",
          "type": "string"
        }
      ],
      "name": "PatientDataAdded",
      "type": "event"
    },
    {
      "anonymous": false,
      "inputs": [
        {
          "indexed": false,
          "internalType": "address",
          "name": "User",
          "type": "address"
        },
        {
          "indexed": false,
          "internalType": "string",
          "name": "PublicKey",
          "type": "string"
        }
      ],
      "name": "PublicKey",
      "type": "event"
    },
    {
      "inputs": [
        {
          "internalType": "address",
          "name": "",
          "type": "address"
        }
      ],
      "name": "addToPublic",
      "outputs": [
        {
          "internalType": "string",
          "name": "",
          "type": "string"
        }
      ],
      "stateMutability": "view",
      "type": "function",
      "constant": true
    },
    {
      "inputs": [
        {
          "internalType": "uint256",
          "name": "",
          "type": "uint256"
        }
      ],
      "name": "allDoctors",
      "outputs": [
        {
          "internalType": "address",
          "name": "",
          "type": "address"
        }
      ],
      "stateMutability": "view",
      "type": "function",
      "constant": true
    },
    {
      "inputs": [
        {
          "internalType": "uint256",
          "name": "",
          "type": "uint256"
        }
      ],
      "name": "allPatients",
      "outputs": [
        {
          "internalType": "address",
          "name": "",
          "type": "address"
        }
      ],
      "stateMutability": "view",
      "type": "function",
      "constant": true
    },
    {
      "inputs": [
        {
          "internalType": "address",
          "name": "",
          "type": "address"
        }
      ],
      "name": "docFee",
      "outputs": [
        {
          "internalType": "uint256",
          "name": "",
          "type": "uint256"
        }
      ],
      "stateMutability": "view",
      "type": "function",
      "constant": true
    },
    {
      "inputs": [
        {
          "internalType": "address",
          "name": "",
          "type": "address"
        },
        {
          "internalType": "string",
          "name": "",
          "type": "string"
        }
      ],
      "name": "doctorDataCheckHash",
      "outputs": [
        {
          "internalType": "bool",
          "name": "",
          "type": "bool"
        }
      ],
      "stateMutability": "view",
      "type": "function",
      "constant": true
    },
    {
      "inputs": [
        {
          "internalType": "string",
          "name": "",
          "type": "string"
        }
      ],
      "name": "doctorDataDetails",
      "outputs": [
        {
          "internalType": "address",
          "name": "patient",
          "type": "address"
        },
        {
          "internalType": "string",
          "name": "hashData",
          "type": "string"
        },
        {
          "internalType": "string",
          "name": "query",
          "type": "string"
        },
        {
          "internalType": "string",
          "name": "prescription",
          "type": "string"
        }
      ],
      "stateMutability": "view",
      "type": "function",
      "constant": true
    },
    {
      "inputs": [
        {
          "internalType": "address",
          "name": "",
          "type": "address"
        },
        {
          "internalType": "uint256",
          "name": "",
          "type": "uint256"
        }
      ],
      "name": "doctorReceivedDataHash",
      "outputs": [
        {
          "internalType": "string",
          "name": "",
          "type": "string"
        }
      ],
      "stateMutability": "view",
      "type": "function",
      "constant": true
    },
    {
      "inputs": [
        {
          "internalType": "address",
          "name": "",
          "type": "address"
        }
      ],
      "name": "isDoc",
      "outputs": [
        {
          "internalType": "bool",
          "name": "",
          "type": "bool"
        }
      ],
      "stateMutability": "view",
      "type": "function",
      "constant": true
    },
    {
      "inputs": [
        {
          "internalType": "address",
          "name": "",
          "type": "address"
        }
      ],
      "name": "isPatient",
      "outputs": [
        {
          "internalType": "bool",
          "name": "",
          "type": "bool"
        }
      ],
      "stateMutability": "view",
      "type": "function",
      "constant": true
    },
    {
      "inputs": [],
      "name": "owner",
      "outputs": [
        {
          "internalType": "address",
          "name": "",
          "type": "address"
        }
      ],
      "stateMutability": "view",
      "type": "function",
      "constant": true
    },
    {
      "inputs": [
        {
          "internalType": "address",
          "name": "",
          "type": "address"
        },
        {
          "internalType": "uint256",
          "name": "",
          "type": "uint256"
        }
      ],
      "name": "patientAllDataHash",
      "outputs": [
        {
          "internalType": "string",
          "name": "",
          "type": "string"
        }
      ],
      "stateMutability": "view",
      "type": "function",
      "constant": true
    },
    {
      "inputs": [
        {
          "internalType": "address",
          "name": "",
          "type": "address"
        },
        {
          "internalType": "string",
          "name": "",
          "type": "string"
        }
      ],
      "name": "patientDataCheckHash",
      "outputs": [
        {
          "internalType": "bool",
          "name": "",
          "type": "bool"
        }
      ],
      "stateMutability": "view",
      "type": "function",
      "constant": true
    },
    {
      "inputs": [
        {
          "internalType": "string",
          "name": "",
          "type": "string"
        }
      ],
      "name": "patientDataDetails",
      "outputs": [
        {
          "internalType": "string",
          "name": "hashData",
          "type": "string"
        },
        {
          "internalType": "string",
          "name": "query",
          "type": "string"
        },
        {
          "internalType": "address",
          "name": "doctor",
          "type": "address"
        },
        {
          "internalType": "string",
          "name": "prescription",
          "type": "string"
        }
      ],
      "stateMutability": "view",
      "type": "function",
      "constant": true
    },
    {
      "inputs": [
        {
          "internalType": "address",
          "name": "_add",
          "type": "address"
        }
      ],
      "name": "getPublicKey",
      "outputs": [
        {
          "internalType": "string",
          "name": "",
          "type": "string"
        }
      ],
      "stateMutability": "view",
      "type": "function",
      "constant": true
    },
    {
      "inputs": [
        {
          "internalType": "string",
          "name": "_publicKey",
          "type": "string"
        }
      ],
      "name": "addPatient",
      "outputs": [],
      "stateMutability": "nonpayable",
      "type": "function"
    },
    {
      "inputs": [
        {
          "internalType": "string",
          "name": "_fileHash",
          "type": "string"
        },
        {
          "internalType": "string",
          "name": "_fileDataEncrypt",
          "type": "string"
        }
      ],
      "name": "addFile",
      "outputs": [],
      "stateMutability": "nonpayable",
      "type": "function"
    },
    {
      "inputs": [
        {
          "internalType": "address",
          "name": "_doc",
          "type": "address"
        },
        {
          "internalType": "string",
          "name": "_fileHash",
          "type": "string"
        },
        {
          "internalType": "string",
          "name": "_fileDataEncrypt",
          "type": "string"
        }
      ],
      "name": "sendFile",
      "outputs": [],
      "stateMutability": "nonpayable",
      "type": "function"
    },
    {
      "inputs": [],
      "name": "getAllPatients",
      "outputs": [
        {
          "internalType": "address[]",
          "name": "",
          "type": "address[]"
        }
      ],
      "stateMutability": "view",
      "type": "function",
      "constant": true
    },
    {
      "inputs": [],
      "name": "allPatientsDataHash",
      "outputs": [
        {
          "internalType": "string[]",
          "name": "",
          "type": "string[]"
        }
      ],
      "stateMutability": "view",
      "type": "function",
      "constant": true
    },
    {
      "inputs": [
        {
          "internalType": "string",
          "name": "_hash",
          "type": "string"
        }
      ],
      "name": "getPatientDataDetails",
      "outputs": [
        {
          "components": [
            {
              "internalType": "string",
              "name": "hashData",
              "type": "string"
            },
            {
              "internalType": "string",
              "name": "query",
              "type": "string"
            },
            {
              "internalType": "address",
              "name": "doctor",
              "type": "address"
            },
            {
              "internalType": "string",
              "name": "prescription",
              "type": "string"
            }
          ],
          "internalType": "struct HealthCare.PatientData",
          "name": "_res",
          "type": "tuple"
        }
      ],
      "stateMutability": "view",
      "type": "function",
      "constant": true
    },
    {
      "inputs": [
        {
          "internalType": "string",
          "name": "_publicKey",
          "type": "string"
        }
      ],
      "name": "addDoctor",
      "outputs": [],
      "stateMutability": "nonpayable",
      "type": "function"
    },
    {
      "inputs": [
        {
          "internalType": "address",
          "name": "_patient",
          "type": "address"
        },
        {
          "internalType": "string",
          "name": "_filehash",
          "type": "string"
        },
        {
          "internalType": "string",
          "name": "_prescriptionDoctor",
          "type": "string"
        },
        {
          "internalType": "string",
          "name": "_prescriptionPatient",
          "type": "string"
        }
      ],
      "name": "sendPrescription",
      "outputs": [],
      "stateMutability": "nonpayable",
      "type": "function"
    },
    {
      "inputs": [],
      "name": "getAllDoctors",
      "outputs": [
        {
          "internalType": "address[]",
          "name": "",
          "type": "address[]"
        }
      ],
      "stateMutability": "view",
      "type": "function",
      "constant": true
    },
    {
      "inputs": [],
      "name": "alDoctorsDataHash",
      "outputs": [
        {
          "internalType": "string[]",
          "name": "",
          "type": "string[]"
        }
      ],
      "stateMutability": "view",
      "type": "function",
      "constant": true
    },
    {
      "inputs": [
        {
          "internalType": "string",
          "name": "_hash",
          "type": "string"
        }
      ],
      "name": "getDoctorDataDetails",
      "outputs": [
        {
          "components": [
            {
              "internalType": "address",
              "name": "patient",
              "type": "address"
            },
            {
              "internalType": "string",
              "name": "hashData",
              "type": "string"
            },
            {
              "internalType": "string",
              "name": "query",
              "type": "string"
            },
            {
              "internalType": "string",
              "name": "prescription",
              "type": "string"
            }
          ],
          "internalType": "struct HealthCare.DoctorData",
          "name": "_res",
          "type": "tuple"
        }
      ],
      "stateMutability": "view",
      "type": "function",
      "constant": true
    }
  ],
  "bytecode": "0x608060405234801561001057600080fd5b50336000806101000a81548173ffffffffffffffffffffffffffffffffffffffff021916908373ffffffffffffffffffffffffffffffffffffffff160217905550613f5d806100606000396000f3fe608060405234801561001057600080fd5b50600436106101725760003560e01c80638f9c79ed116100de578063d4f17f7311610097578063f0d9509011610071578063f0d95090146104e7578063f9e4d5eb14610505578063fb87cf9414610523578063fe0ceed71461053f57610172565b8063d4f17f731461047d578063d8f608df1461049b578063e90358e0146104cb57610172565b80638f9c79ed146103715780639cd2fb23146103a1578063bac807bc146103bd578063c5231f1b146103ed578063c581f7031461041d578063d26a98561461044d57610172565b80634668def4116101305780634668def4146102605780635a520da11461029357806368e15f73146102c3578063857cdbb8146102f35780638875f6ec146103235780638da5cb5b1461035357610172565b8062618644146101775780630be61700146101aa57806318a231a9146101c6578063248bfc3b146101e457806338d74cea146102005780633aa93b4514610230575b600080fd5b610191600480360361018c9190810190612e62565b61056f565b6040516101a194939291906139e0565b60405180910390f35b6101c460048036036101bf9190810190612ea3565b61079d565b005b6101ce610a44565b6040516101db919061393d565b60405180910390f35b6101fe60048036036101f99190810190612ee4565b610ad2565b005b61021a60048036036102159190810190612e26565b610dac565b604051610227919061399c565b60405180910390f35b61024a60048036036102459190810190612c7f565b610e72565b6040516102579190613cbe565b60405180910390f35b61027a60048036036102759190810190612e62565b610e8a565b60405161028a94939291906138e3565b60405180910390f35b6102ad60048036036102a89190810190612f50565b6110b8565b6040516102ba9190613838565b60405180910390f35b6102dd60048036036102d89190810190612ea3565b6110f4565b6040516102ea9190613c7a565b60405180910390f35b61030d60048036036103089190810190612c7f565b611417565b60405161031a91906139be565b60405180910390f35b61033d60048036036103389190810190612e26565b6114f8565b60405161034a919061399c565b60405180910390f35b61035b6115be565b6040516103689190613838565b60405180910390f35b61038b60048036036103869190810190612c7f565b6115e3565b6040516103989190613981565b60405180910390f35b6103bb60048036036103b69190810190612cfc565b611603565b005b6103d760048036036103d29190810190612ca8565b611aa5565b6040516103e49190613981565b60405180910390f35b61040760048036036104029190810190612ea3565b611aea565b6040516104149190613c9c565b60405180910390f35b61043760048036036104329190810190612ca8565b611e0d565b6040516104449190613981565b60405180910390f35b61046760048036036104629190810190612c7f565b611e52565b604051610474919061399c565b60405180910390f35b610485611f02565b604051610492919061395f565b60405180910390f35b6104b560048036036104b09190810190612f50565b612028565b6040516104c29190613838565b60405180910390f35b6104e560048036036104e09190810190612d7b565b612064565b005b6104ef612610565b6040516104fc919061393d565b60405180910390f35b61050d61269e565b60405161051a919061395f565b60405180910390f35b61053d60048036036105389190810190612ea3565b6127c4565b005b61055960048036036105549190810190612c7f565b612a6c565b6040516105669190613981565b60405180910390f35b600781805160208101820180518482526020830160208501208183528095505050505050600091509050806000018054600181600116156101000203166002900480601f0160208091040260200160405190810160405280929190818152602001828054600181600116156101000203166002900480156106315780601f1061060657610100808354040283529160200191610631565b820191906000526020600020905b81548152906001019060200180831161061457829003601f168201915b505050505090806001018054600181600116156101000203166002900480601f0160208091040260200160405190810160405280929190818152602001828054600181600116156101000203166002900480156106cf5780601f106106a4576101008083540402835291602001916106cf565b820191906000526020600020905b8154815290600101906020018083116106b257829003601f168201915b5050505050908060020160009054906101000a900473ffffffffffffffffffffffffffffffffffffffff1690806003018054600181600116156101000203166002900480601f0160208091040260200160405190810160405280929190818152602001828054600181600116156101000203166002900480156107935780601f1061076857610100808354040283529160200191610793565b820191906000526020600020905b81548152906001019060200180831161077657829003601f168201915b5050505050905084565b60001515600160003373ffffffffffffffffffffffffffffffffffffffff1673ffffffffffffffffffffffffffffffffffffffff16815260200190815260200160002060009054906101000a900460ff16151514610830576040517f08c379a000000000000000000000000000000000000000000000000000000000815260040161082790613afa565b60405180910390fd5b60001515600360003373ffffffffffffffffffffffffffffffffffffffff1673ffffffffffffffffffffffffffffffffffffffff16815260200190815260200160002060009054906101000a900460ff161515146108c3576040517f08c379a00000000000000000000000000000000000000000000000000000000081526004016108ba90613b7a565b60405180910390fd5b6002339080600181540180825580915050600190039060005260206000200160009091909190916101000a81548173ffffffffffffffffffffffffffffffffffffffff021916908373ffffffffffffffffffffffffffffffffffffffff16021790555060018060003373ffffffffffffffffffffffffffffffffffffffff1673ffffffffffffffffffffffffffffffffffffffff16815260200190815260200160002060006101000a81548160ff02191690831515021790555080600c60003373ffffffffffffffffffffffffffffffffffffffff1673ffffffffffffffffffffffffffffffffffffffff16815260200190815260200160002090805190602001906109d0929190612a8c565b507f69908b2e63170aa89ef89719bbe3b4c92cccc38653968ab25f4464eff7c28ac833604051610a009190613853565b60405180910390a17f98985ca17d101edecdfe3914144a18c7393d1c76adb56c30206a02985193aea93382604051610a3992919061386e565b60405180910390a150565b60606004805480602002602001604051908101604052809291908181526020018280548015610ac857602002820191906000526020600020905b8160009054906101000a900473ffffffffffffffffffffffffffffffffffffffff1673ffffffffffffffffffffffffffffffffffffffff1681526020019060010190808311610a7e575b5050505050905090565b60011515600360003373ffffffffffffffffffffffffffffffffffffffff1673ffffffffffffffffffffffffffffffffffffffff16815260200190815260200160002060009054906101000a900460ff16151514610b65576040517f08c379a0000000000000000000000000000000000000000000000000000000008152600401610b5c90613c5a565b60405180910390fd5b60001515600860003373ffffffffffffffffffffffffffffffffffffffff1673ffffffffffffffffffffffffffffffffffffffff16815260200190815260200160002083604051610bb691906137f5565b908152602001604051809103902060009054906101000a900460ff16151514610c14576040517f08c379a0000000000000000000000000000000000000000000000000000000008152600401610c0b90613a9a565b60405180910390fd5b600660003373ffffffffffffffffffffffffffffffffffffffff1673ffffffffffffffffffffffffffffffffffffffff16815260200190815260200160002082908060018154018082558091505060019003906000526020600020016000909190919091509080519060200190610c8c929190612a8c565b5081600783604051610c9e91906137f5565b90815260200160405180910390206000019080519060200190610cc2929190612a8c565b5080600783604051610cd491906137f5565b90815260200160405180910390206001019080519060200190610cf8929190612a8c565b506001600860003373ffffffffffffffffffffffffffffffffffffffff1673ffffffffffffffffffffffffffffffffffffffff16815260200190815260200160002083604051610d4891906137f5565b908152602001604051809103902060006101000a81548160ff0219169083151502179055507fbf782ffd4c3f0f3025a6be234a0a75bac4215343beedc8aa5b9e23e35a5c727d338383604051610da09392919061389e565b60405180910390a15050565b60096020528160005260406000208181548110610dc557fe5b90600052602060002001600091509150508054600181600116156101000203166002900480601f016020809104026020016040519081016040528092919081815260200182805460018160011615610100020316600290048015610e6a5780601f10610e3f57610100808354040283529160200191610e6a565b820191906000526020600020905b815481529060010190602001808311610e4d57829003601f168201915b505050505081565b60056020528060005260406000206000915090505481565b600a818051602081018201805184825260208301602085012081835280955050505050506000915090508060000160009054906101000a900473ffffffffffffffffffffffffffffffffffffffff1690806001018054600181600116156101000203166002900480601f016020809104026020016040519081016040528092919081815260200182805460018160011615610100020316600290048015610f725780601f10610f4757610100808354040283529160200191610f72565b820191906000526020600020905b815481529060010190602001808311610f5557829003601f168201915b505050505090806002018054600181600116156101000203166002900480601f0160208091040260200160405190810160405280929190818152602001828054600181600116156101000203166002900480156110105780601f10610fe557610100808354040283529160200191611010565b820191906000526020600020905b815481529060010190602001808311610ff357829003601f168201915b505050505090806003018054600181600116156101000203166002900480601f0160208091040260200160405190810160405280929190818152602001828054600181600116156101000203166002900480156110ae5780601f10611083576101008083540402835291602001916110ae565b820191906000526020600020905b81548152906001019060200180831161109157829003601f168201915b5050505050905084565b600281815481106110c557fe5b906000526020600020016000915054906101000a900473ffffffffffffffffffffffffffffffffffffffff1681565b6110fc612b0c565b60011515600b60003373ffffffffffffffffffffffffffffffffffffffff1673ffffffffffffffffffffffffffffffffffffffff1681526020019081526020016000208360405161114d91906137f5565b908152602001604051809103902060009054906101000a900460ff161515146111ab576040517f08c379a00000000000000000000000000000000000000000000000000000000081526004016111a290613ada565b60405180910390fd5b600a826040516111bb91906137f5565b90815260200160405180910390206040518060800160405290816000820160009054906101000a900473ffffffffffffffffffffffffffffffffffffffff1673ffffffffffffffffffffffffffffffffffffffff1673ffffffffffffffffffffffffffffffffffffffff168152602001600182018054600181600116156101000203166002900480601f0160208091040260200160405190810160405280929190818152602001828054600181600116156101000203166002900480156112c35780601f10611298576101008083540402835291602001916112c3565b820191906000526020600020905b8154815290600101906020018083116112a657829003601f168201915b50505050508152602001600282018054600181600116156101000203166002900480601f0160208091040260200160405190810160405280929190818152602001828054600181600116156101000203166002900480156113655780601f1061133a57610100808354040283529160200191611365565b820191906000526020600020905b81548152906001019060200180831161134857829003601f168201915b50505050508152602001600382018054600181600116156101000203166002900480601f0160208091040260200160405190810160405280929190818152602001828054600181600116156101000203166002900480156114075780601f106113dc57610100808354040283529160200191611407565b820191906000526020600020905b8154815290600101906020018083116113ea57829003601f168201915b5050505050815250509050919050565b6060600c60008373ffffffffffffffffffffffffffffffffffffffff1673ffffffffffffffffffffffffffffffffffffffff1681526020019081526020016000208054600181600116156101000203166002900480601f0160208091040260200160405190810160405280929190818152602001828054600181600116156101000203166002900480156114ec5780601f106114c1576101008083540402835291602001916114ec565b820191906000526020600020905b8154815290600101906020018083116114cf57829003601f168201915b50505050509050919050565b6006602052816000526040600020818154811061151157fe5b90600052602060002001600091509150508054600181600116156101000203166002900480601f0160208091040260200160405190810160405280929190818152602001828054600181600116156101000203166002900480156115b65780601f1061158b576101008083540402835291602001916115b6565b820191906000526020600020905b81548152906001019060200180831161159957829003601f168201915b505050505081565b6000809054906101000a900473ffffffffffffffffffffffffffffffffffffffff1681565b60036020528060005260406000206000915054906101000a900460ff1681565b60011515600360003373ffffffffffffffffffffffffffffffffffffffff1673ffffffffffffffffffffffffffffffffffffffff16815260200190815260200160002060009054906101000a900460ff16151514611696576040517f08c379a000000000000000000000000000000000000000000000000000000000815260040161168d90613a5a565b60405180910390fd5b60011515600160008573ffffffffffffffffffffffffffffffffffffffff1673ffffffffffffffffffffffffffffffffffffffff16815260200190815260200160002060009054906101000a900460ff16151514611729576040517f08c379a000000000000000000000000000000000000000000000000000000000815260040161172090613b5a565b60405180910390fd5b60011515600860003373ffffffffffffffffffffffffffffffffffffffff1673ffffffffffffffffffffffffffffffffffffffff1681526020019081526020016000208360405161177a91906137f5565b908152602001604051809103902060009054906101000a900460ff161515146117d8576040517f08c379a00000000000000000000000000000000000000000000000000000000081526004016117cf90613ada565b60405180910390fd5b60001515600b60008573ffffffffffffffffffffffffffffffffffffffff1673ffffffffffffffffffffffffffffffffffffffff1681526020019081526020016000208360405161182991906137f5565b908152602001604051809103902060009054906101000a900460ff16151514611887576040517f08c379a000000000000000000000000000000000000000000000000000000000815260040161187e90613aba565b60405180910390fd5b600960008473ffffffffffffffffffffffffffffffffffffffff1673ffffffffffffffffffffffffffffffffffffffff168152602001908152602001600020829080600181540180825580915050600190039060005260206000200160009091909190915090805190602001906118ff929190612a8c565b506001600b60008573ffffffffffffffffffffffffffffffffffffffff1673ffffffffffffffffffffffffffffffffffffffff1681526020019081526020016000208360405161194f91906137f5565b908152602001604051809103902060006101000a81548160ff02191690831515021790555033600a8360405161198591906137f5565b908152602001604051809103902060000160006101000a81548173ffffffffffffffffffffffffffffffffffffffff021916908373ffffffffffffffffffffffffffffffffffffffff16021790555081600a836040516119e591906137f5565b90815260200160405180910390206001019080519060200190611a09929190612a8c565b5080600a83604051611a1b91906137f5565b90815260200160405180910390206002019080519060200190611a3f929190612a8c565b5082600783604051611a5191906137f5565b908152602001604051809103902060020160006101000a81548173ffffffffffffffffffffffffffffffffffffffff021916908373ffffffffffffffffffffffffffffffffffffffff160217905550505050565b600b602052816000526040600020818051602081018201805184825260208301602085012081835280955050505050506000915091509054906101000a900460ff1681565b611af2612b4a565b60011515600860003373ffffffffffffffffffffffffffffffffffffffff1673ffffffffffffffffffffffffffffffffffffffff16815260200190815260200160002083604051611b4391906137f5565b908152602001604051809103902060009054906101000a900460ff16151514611ba1576040517f08c379a0000000000000000000000000000000000000000000000000000000008152600401611b9890613ada565b60405180910390fd5b600782604051611bb191906137f5565b9081526020016040518091039020604051806080016040529081600082018054600181600116156101000203166002900480601f016020809104026020016040519081016040528092919081815260200182805460018160011615610100020316600290048015611c635780601f10611c3857610100808354040283529160200191611c63565b820191906000526020600020905b815481529060010190602001808311611c4657829003601f168201915b50505050508152602001600182018054600181600116156101000203166002900480601f016020809104026020016040519081016040528092919081815260200182805460018160011615610100020316600290048015611d055780601f10611cda57610100808354040283529160200191611d05565b820191906000526020600020905b815481529060010190602001808311611ce857829003601f168201915b505050505081526020016002820160009054906101000a900473ffffffffffffffffffffffffffffffffffffffff1673ffffffffffffffffffffffffffffffffffffffff1673ffffffffffffffffffffffffffffffffffffffff168152602001600382018054600181600116156101000203166002900480601f016020809104026020016040519081016040528092919081815260200182805460018160011615610100020316600290048015611dfd5780601f10611dd257610100808354040283529160200191611dfd565b820191906000526020600020905b815481529060010190602001808311611de057829003601f168201915b5050505050815250509050919050565b6008602052816000526040600020818051602081018201805184825260208301602085012081835280955050505050506000915091509054906101000a900460ff1681565b600c6020528060005260406000206000915090508054600181600116156101000203166002900480601f016020809104026020016040519081016040528092919081815260200182805460018160011615610100020316600290048015611efa5780601f10611ecf57610100808354040283529160200191611efa565b820191906000526020600020905b815481529060010190602001808311611edd57829003601f168201915b505050505081565b6060600960003373ffffffffffffffffffffffffffffffffffffffff1673ffffffffffffffffffffffffffffffffffffffff168152602001908152602001600020805480602002602001604051908101604052809291908181526020016000905b8282101561201f578382906000526020600020018054600181600116156101000203166002900480601f01602080910402602001604051908101604052809291908181526020018280546001816001161561010002031660029004801561200b5780601f10611fe05761010080835404028352916020019161200b565b820191906000526020600020905b815481529060010190602001808311611fee57829003601f168201915b505050505081526020019060010190611f63565b50505050905090565b6004818154811061203557fe5b906000526020600020016000915054906101000a900473ffffffffffffffffffffffffffffffffffffffff1681565b60011515600160003373ffffffffffffffffffffffffffffffffffffffff1673ffffffffffffffffffffffffffffffffffffffff16815260200190815260200160002060009054906101000a900460ff161515146120f7576040517f08c379a00000000000000000000000000000000000000000000000000000000081526004016120ee90613a7a565b60405180910390fd5b60011515600360008673ffffffffffffffffffffffffffffffffffffffff1673ffffffffffffffffffffffffffffffffffffffff16815260200190815260200160002060009054906101000a900460ff1615151461218a576040517f08c379a000000000000000000000000000000000000000000000000000000000815260040161218190613b3a565b60405180910390fd5b60011515600b60003373ffffffffffffffffffffffffffffffffffffffff1673ffffffffffffffffffffffffffffffffffffffff168152602001908152602001600020846040516121db91906137f5565b908152602001604051809103902060009054906101000a900460ff16151514612239576040517f08c379a000000000000000000000000000000000000000000000000000000000815260040161223090613c3a565b60405180910390fd5b60011515600860008673ffffffffffffffffffffffffffffffffffffffff1673ffffffffffffffffffffffffffffffffffffffff1681526020019081526020016000208460405161228a91906137f5565b908152602001604051809103902060009054906101000a900460ff161515146122e8576040517f08c379a00000000000000000000000000000000000000000000000000000000081526004016122df90613bda565b60405180910390fd5b8373ffffffffffffffffffffffffffffffffffffffff16600a8460405161230f91906137f5565b908152602001604051809103902060000160009054906101000a900473ffffffffffffffffffffffffffffffffffffffff1673ffffffffffffffffffffffffffffffffffffffff1614612397576040517f08c379a000000000000000000000000000000000000000000000000000000000815260040161238e90613a3a565b60405180910390fd5b3373ffffffffffffffffffffffffffffffffffffffff166007846040516123be91906137f5565b908152602001604051809103902060020160009054906101000a900473ffffffffffffffffffffffffffffffffffffffff1673ffffffffffffffffffffffffffffffffffffffff1614612446576040517f08c379a000000000000000000000000000000000000000000000000000000000815260040161243d90613b9a565b60405180910390fd5b60405160200161245590613823565b60405160208183030381529060405280519060200120600a8460405161247b91906137f5565b908152602001604051809103902060030160405160200161249c919061380c565b60405160208183030381529060405280519060200120146124f2576040517f08c379a00000000000000000000000000000000000000000000000000000000081526004016124e990613bfa565b60405180910390fd5b60405160200161250190613823565b6040516020818303038152906040528051906020012060078460405161252791906137f5565b9081526020016040518091039020600301604051602001612548919061380c565b604051602081830303815290604052805190602001201461259e576040517f08c379a000000000000000000000000000000000000000000000000000000000815260040161259590613bba565b60405180910390fd5b81600a846040516125af91906137f5565b908152602001604051809103902060030190805190602001906125d3929190612a8c565b50806007846040516125e591906137f5565b90815260200160405180910390206003019080519060200190612609929190612a8c565b5050505050565b6060600280548060200260200160405190810160405280929190818152602001828054801561269457602002820191906000526020600020905b8160009054906101000a900473ffffffffffffffffffffffffffffffffffffffff1673ffffffffffffffffffffffffffffffffffffffff168152602001906001019080831161264a575b5050505050905090565b6060600660003373ffffffffffffffffffffffffffffffffffffffff1673ffffffffffffffffffffffffffffffffffffffff168152602001908152602001600020805480602002602001604051908101604052809291908181526020016000905b828210156127bb578382906000526020600020018054600181600116156101000203166002900480601f0160208091040260200160405190810160405280929190818152602001828054600181600116156101000203166002900480156127a75780601f1061277c576101008083540402835291602001916127a7565b820191906000526020600020905b81548152906001019060200180831161278a57829003601f168201915b5050505050815260200190600101906126ff565b50505050905090565b60001515600160003373ffffffffffffffffffffffffffffffffffffffff1673ffffffffffffffffffffffffffffffffffffffff16815260200190815260200160002060009054906101000a900460ff16151514612857576040517f08c379a000000000000000000000000000000000000000000000000000000000815260040161284e90613b1a565b60405180910390fd5b60001515600360003373ffffffffffffffffffffffffffffffffffffffff1673ffffffffffffffffffffffffffffffffffffffff16815260200190815260200160002060009054906101000a900460ff161515146128ea576040517f08c379a00000000000000000000000000000000000000000000000000000000081526004016128e190613c1a565b60405180910390fd5b6001600360003373ffffffffffffffffffffffffffffffffffffffff1673ffffffffffffffffffffffffffffffffffffffff16815260200190815260200160002060006101000a81548160ff0219169083151502179055506004339080600181540180825580915050600190039060005260206000200160009091909190916101000a81548173ffffffffffffffffffffffffffffffffffffffff021916908373ffffffffffffffffffffffffffffffffffffffff16021790555080600c60003373ffffffffffffffffffffffffffffffffffffffff1673ffffffffffffffffffffffffffffffffffffffff16815260200190815260200160002090805190602001906129f8929190612a8c565b507fa58cff07db0adda3ab7a40bd2f18ab57210bf38391a52ffd2e8eee6b8bdec71a33604051612a289190613853565b60405180910390a17f98985ca17d101edecdfe3914144a18c7393d1c76adb56c30206a02985193aea93382604051612a6192919061386e565b60405180910390a150565b60016020528060005260406000206000915054906101000a900460ff1681565b828054600181600116156101000203166002900490600052602060002090601f016020900481019282601f10612acd57805160ff1916838001178555612afb565b82800160010185558215612afb579182015b82811115612afa578251825591602001919060010190612adf565b5b509050612b089190612b88565b5090565b6040518060800160405280600073ffffffffffffffffffffffffffffffffffffffff1681526020016060815260200160608152602001606081525090565b60405180608001604052806060815260200160608152602001600073ffffffffffffffffffffffffffffffffffffffff168152602001606081525090565b612baa91905b80821115612ba6576000816000905550600101612b8e565b5090565b90565b600081359050612bbc81613ef9565b92915050565b600082601f830112612bd357600080fd5b8135612be6612be182613d06565b613cd9565b91508082526020830160208301858383011115612c0257600080fd5b612c0d838284613ea6565b50505092915050565b600082601f830112612c2757600080fd5b8135612c3a612c3582613d32565b613cd9565b91508082526020830160208301858383011115612c5657600080fd5b612c61838284613ea6565b50505092915050565b600081359050612c7981613f10565b92915050565b600060208284031215612c9157600080fd5b6000612c9f84828501612bad565b91505092915050565b60008060408385031215612cbb57600080fd5b6000612cc985828601612bad565b925050602083013567ffffffffffffffff811115612ce657600080fd5b612cf285828601612bc2565b9150509250929050565b600080600060608486031215612d1157600080fd5b6000612d1f86828701612bad565b935050602084013567ffffffffffffffff811115612d3c57600080fd5b612d4886828701612c16565b925050604084013567ffffffffffffffff811115612d6557600080fd5b612d7186828701612c16565b9150509250925092565b60008060008060808587031215612d9157600080fd5b6000612d9f87828801612bad565b945050602085013567ffffffffffffffff811115612dbc57600080fd5b612dc887828801612c16565b935050604085013567ffffffffffffffff811115612de557600080fd5b612df187828801612c16565b925050606085013567ffffffffffffffff811115612e0e57600080fd5b612e1a87828801612c16565b91505092959194509250565b60008060408385031215612e3957600080fd5b6000612e4785828601612bad565b9250506020612e5885828601612c6a565b9150509250929050565b600060208284031215612e7457600080fd5b600082013567ffffffffffffffff811115612e8e57600080fd5b612e9a84828501612bc2565b91505092915050565b600060208284031215612eb557600080fd5b600082013567ffffffffffffffff811115612ecf57600080fd5b612edb84828501612c16565b91505092915050565b60008060408385031215612ef757600080fd5b600083013567ffffffffffffffff811115612f1157600080fd5b612f1d85828601612c16565b925050602083013567ffffffffffffffff811115612f3a57600080fd5b612f4685828601612c16565b9150509250929050565b600060208284031215612f6257600080fd5b6000612f7084828501612c6a565b91505092915050565b6000612f858383612fb4565b60208301905092915050565b6000612f9d838361311e565b905092915050565b612fae81613e70565b82525050565b612fbd81613e28565b82525050565b612fcc81613e28565b82525050565b6000612fdd82613d93565b612fe78185613dd9565b9350612ff283613d5e565b8060005b8381101561302357815161300a8882612f79565b975061301583613dbf565b925050600181019050612ff6565b5085935050505092915050565b600061303b82613d9e565b6130458185613dea565b93508360208202850161305785613d6e565b8060005b8581101561309357848403895281516130748582612f91565b945061307f83613dcc565b925060208a0199505060018101905061305b565b50829750879550505050505092915050565b6130ae81613e3a565b82525050565b60006130bf82613db4565b6130c98185613e0c565b93506130d9818560208601613eb5565b6130e281613ee8565b840191505092915050565b60006130f882613db4565b6131028185613e1d565b9350613112818560208601613eb5565b80840191505092915050565b600061312982613da9565b6131338185613dfb565b9350613143818560208601613eb5565b61314c81613ee8565b840191505092915050565b600061316282613da9565b61316c8185613e0c565b935061317c818560208601613eb5565b61318581613ee8565b840191505092915050565b6000815460018116600081146131ad57600181146131d257613216565b607f60028304166131be8187613e1d565b955060ff1983168652808601935050613216565b600282046131e08187613e1d565b95506131eb85613d7e565b60005b8281101561320d578154818901526001820191506020810190506131ee565b82880195505050505b505092915050565b600061322b601183613e0c565b91507f50617469656e74206e6f742076616c69640000000000000000000000000000006000830152602082019050919050565b600061326b601383613e0c565b91507f596f7520617265206e6f742070617469656e74000000000000000000000000006000830152602082019050919050565b60006132ab601283613e0c565b91507f596f7520617265206e6f7420446f63746f7200000000000000000000000000006000830152602082019050919050565b60006132eb601283613e0c565b91507f46696c6520616c726561647920616464656400000000000000000000000000006000830152602082019050919050565b600061332b601183613e0c565b91507f46696c6520616c72656164792073656e740000000000000000000000000000006000830152602082019050919050565b600061336b600c83613e0c565b91507f496e76616c6964206461746100000000000000000000000000000000000000006000830152602082019050919050565b60006133ab601983613e0c565b91507f4164647265737320697320616c726561647920446f63746f72000000000000006000830152602082019050919050565b60006133eb601183613e0c565b91507f4164647265737320697320446f63746f720000000000000000000000000000006000830152602082019050919050565b600061342b600f83613e0c565b91507f496e76616c69642070617469656e7400000000000000000000000000000000006000830152602082019050919050565b600061346b600e83613e0c565b91507f496e76616c696420446f63746f720000000000000000000000000000000000006000830152602082019050919050565b60006134ab601283613e0c565b91507f416464726573732069732070617469656e7400000000000000000000000000006000830152602082019050919050565b60006134eb601583613e0c565b91507f446f63746f72206e6f7420617574686f72697a656400000000000000000000006000830152602082019050919050565b600061352b600083613e1d565b9150600082019050919050565b6000613545602683613e0c565b91507f507265736372697074696f6e20616c726561647920616464656420696e20706160008301527f7469656e742e00000000000000000000000000000000000000000000000000006020830152604082019050919050565b60006135ab601183613e0c565b91507f496e76616c6964206461746120686173680000000000000000000000000000006000830152602082019050919050565b60006135eb602583613e0c565b91507f507265736372697074696f6e20616c726561647920616464656420696e20646f60008301527f63746f722e0000000000000000000000000000000000000000000000000000006020830152604082019050919050565b6000613651601a83613e0c565b91507f4164647265737320697320616c72656164792070617469656e740000000000006000830152602082019050919050565b6000613691601283613e0c565b91507f46696c65206e6f7420617661696c61626c6500000000000000000000000000006000830152602082019050919050565b60006136d1601683613e0c565b91507f41646472657373206973206e6f742070617469656e74000000000000000000006000830152602082019050919050565b600060808301600083015161371c6000860182612fb4565b5060208301518482036020860152613734828261311e565b9150506040830151848203604086015261374e828261311e565b91505060608301518482036060860152613768828261311e565b9150508091505092915050565b60006080830160008301518482036000860152613792828261311e565b915050602083015184820360208601526137ac828261311e565b91505060408301516137c16040860182612fb4565b50606083015184820360608601526137d9828261311e565b9150508091505092915050565b6137ef81613e66565b82525050565b600061380182846130ed565b915081905092915050565b60006138188284613190565b915081905092915050565b600061382e8261351e565b9150819050919050565b600060208201905061384d6000830184612fc3565b92915050565b60006020820190506138686000830184612fa5565b92915050565b60006040820190506138836000830185612fa5565b818103602083015261389581846130b4565b90509392505050565b60006060820190506138b36000830186612fa5565b81810360208301526138c581856130b4565b905081810360408301526138d981846130b4565b9050949350505050565b60006080820190506138f86000830187612fc3565b818103602083015261390a8186613157565b9050818103604083015261391e8185613157565b905081810360608301526139328184613157565b905095945050505050565b600060208201905081810360008301526139578184612fd2565b905092915050565b600060208201905081810360008301526139798184613030565b905092915050565b600060208201905061399660008301846130a5565b92915050565b600060208201905081810360008301526139b68184613157565b905092915050565b600060208201905081810360008301526139d881846130b4565b905092915050565b600060808201905081810360008301526139fa8187613157565b90508181036020830152613a0e8186613157565b9050613a1d6040830185612fc3565b8181036060830152613a2f8184613157565b905095945050505050565b60006020820190508181036000830152613a538161321e565b9050919050565b60006020820190508181036000830152613a738161325e565b9050919050565b60006020820190508181036000830152613a938161329e565b9050919050565b60006020820190508181036000830152613ab3816132de565b9050919050565b60006020820190508181036000830152613ad38161331e565b9050919050565b60006020820190508181036000830152613af38161335e565b9050919050565b60006020820190508181036000830152613b138161339e565b9050919050565b60006020820190508181036000830152613b33816133de565b9050919050565b60006020820190508181036000830152613b538161341e565b9050919050565b60006020820190508181036000830152613b738161345e565b9050919050565b60006020820190508181036000830152613b938161349e565b9050919050565b60006020820190508181036000830152613bb3816134de565b9050919050565b60006020820190508181036000830152613bd381613538565b9050919050565b60006020820190508181036000830152613bf38161359e565b9050919050565b60006020820190508181036000830152613c13816135de565b9050919050565b60006020820190508181036000830152613c3381613644565b9050919050565b60006020820190508181036000830152613c5381613684565b9050919050565b60006020820190508181036000830152613c73816136c4565b9050919050565b60006020820190508181036000830152613c948184613704565b905092915050565b60006020820190508181036000830152613cb68184613775565b905092915050565b6000602082019050613cd360008301846137e6565b92915050565b6000604051905081810181811067ffffffffffffffff82111715613cfc57600080fd5b8060405250919050565b600067ffffffffffffffff821115613d1d57600080fd5b601f19601f8301169050602081019050919050565b600067ffffffffffffffff821115613d4957600080fd5b601f19601f8301169050602081019050919050565b6000819050602082019050919050565b6000819050602082019050919050565b60008190508160005260206000209050919050565b600081519050919050565b600081519050919050565b600081519050919050565b600081519050919050565b6000602082019050919050565b6000602082019050919050565b600082825260208201905092915050565b600082825260208201905092915050565b600082825260208201905092915050565b600082825260208201905092915050565b600081905092915050565b6000613e3382613e46565b9050919050565b60008115159050919050565b600073ffffffffffffffffffffffffffffffffffffffff82169050919050565b6000819050919050565b6000613e7b82613e82565b9050919050565b6000613e8d82613e94565b9050919050565b6000613e9f82613e46565b9050919050565b82818337600083830152505050565b60005b83811015613ed3578082015181840152602081019050613eb8565b83811115613ee2576000848401525b50505050565b6000601f19601f8301169050919050565b613f0281613e28565b8114613f0d57600080fd5b50565b613f1981613e66565b8114613f2457600080fd5b5056fea2646970667358221220c26c8470d00417e6cbbc1a89c0a5cbcd49af8f0b9a1ab1c2f759d18977b7e46d64736f6c63430006010033",
  "source": "pragma solidity ^0.6.1;\r\npragma experimental ABIEncoderV2;\r\n\r\n\r\ncontract HealthCare {\r\n    address public owner;\r\n\r\n    constructor() public {\r\n        owner = msg.sender;\r\n    }\r\n\r\n    struct DATA {\r\n        string file;\r\n        string prescription;\r\n    }\r\n\r\n    // data hashes as seen by patients\r\n    struct PatientData {\r\n        string hashData;\r\n        string query;\r\n        address doctor;\r\n        string prescription;\r\n    }\r\n\r\n    // data hashes as seen by Doctors\r\n    struct DoctorData {\r\n        address patient;\r\n        string hashData;\r\n        string query;\r\n        string prescription;\r\n    }\r\n\r\n    mapping(address => bool) public isDoc; // doctor\r\n    address[] public allDoctors;\r\n\r\n    mapping(address => bool) public isPatient; // patient\r\n    address[] public allPatients;\r\n\r\n    mapping(address => uint256) public docFee; // doctor while registering doctor\r\n\r\n\r\n    // patient's variables\r\n    mapping(address => string[]) public patientAllDataHash; // patient addFileUniqueHash\r\n    mapping(string => PatientData) public patientDataDetails;\r\n    mapping(address => mapping(string => bool)) public patientDataCheckHash; // patient addFileUniqueHash\r\n\r\n\r\n    // doctor's variables\r\n    mapping(address => string[]) public doctorReceivedDataHash;\r\n    mapping(string => DoctorData) public doctorDataDetails;\r\n    mapping(address => mapping(string => bool)) public doctorDataCheckHash; // patient addFileUniqueHash\r\n\r\n    // addresses to public key\r\n    mapping(address => string) public addToPublic;\r\n\r\n\r\n    // <-------START EVENTS------->\r\n\r\n    // when user is registered he will enter his public key\r\n    event PublicKey(address User, string PublicKey);\r\n\r\n    // when patient is added\r\n    event PatientAdded(address Patient);\r\n\r\n    // when doctor is added\r\n    event DoctorAdded(address Doctor);\r\n\r\n    // when doctor changes his fee\r\n    event FeeChanged(address Doctor, uint256 Fee);\r\n\r\n    // wehen patient adds new file (data)\r\n    event PatientDataAdded(address Patient, string FileHash, string FileData);\r\n\r\n    // <-------END EVENTS------->\r\n\r\n    // <-------GETTING PUBLIC KEY------->\r\n\r\n    function getPublicKey(address _add) public view returns (string memory) {\r\n        return addToPublic[_add];\r\n    }\r\n\r\n    // <-------START PATIENT FUNCTIONS------->\r\n\r\n    // // SETTERS\r\n\r\n    // registering patient\r\n    function addPatient(string memory _publicKey) public {\r\n        // msg.sender is patient\r\n        require(isDoc[msg.sender] == false, \"Address is Doctor\");\r\n        require(isPatient[msg.sender] == false, \"Address is already patient\");\r\n\r\n        isPatient[msg.sender] = true;\r\n        allPatients.push(msg.sender);\r\n\r\n        addToPublic[msg.sender] = _publicKey;\r\n\r\n        emit PatientAdded(msg.sender);\r\n        emit PublicKey(msg.sender, _publicKey);\r\n    }\r\n\r\n    function addFile(string memory _fileHash, string memory _fileDataEncrypt)\r\n        public\r\n    {\r\n        // msg.sender is patient\r\n        require(isPatient[msg.sender] == true, \"Address is not patient\");\r\n        require(patientDataCheckHash[msg.sender][_fileHash] == false, \"File already added\");\r\n\r\n        patientAllDataHash[msg.sender].push(_fileHash);\r\n\r\n        patientDataDetails[_fileHash].hashData = _fileHash;\r\n        patientDataDetails[_fileHash].query = _fileDataEncrypt;\r\n        patientDataCheckHash[msg.sender][_fileHash] = true;\r\n\r\n        emit PatientDataAdded(msg.sender, _fileHash, _fileDataEncrypt);\r\n    }\r\n\r\n    function sendFile(\r\n        address _doc,\r\n        string memory _fileHash,\r\n        string memory _fileDataEncrypt\r\n    ) public {\r\n        // msg.sender is patient\r\n        require(isPatient[msg.sender] == true, \"You are not patient\");\r\n        require(isDoc[_doc] == true, \"Invalid Doctor\");\r\n        require(patientDataCheckHash[msg.sender][_fileHash] == true, \"Invalid data\");\r\n        require(doctorDataCheckHash[_doc][_fileHash] == false, \"File already sent\");\r\n\r\n        doctorReceivedDataHash[_doc].push(_fileHash);\r\n        doctorDataCheckHash[_doc][_fileHash] = true;\r\n\r\n        doctorDataDetails[_fileHash].patient = msg.sender;\r\n        doctorDataDetails[_fileHash].hashData = _fileHash;\r\n        doctorDataDetails[_fileHash].query = _fileDataEncrypt;\r\n\r\n        patientDataDetails[_fileHash].doctor = _doc;\r\n\r\n    }\r\n\r\n    // // GETTERS\r\n\r\n    function getAllPatients() public view returns (address[] memory) {\r\n        return allPatients;\r\n    }\r\n\r\n\r\n    function allPatientsDataHash() public view returns (string[] memory) {\r\n        return patientAllDataHash[msg.sender];\r\n    }\r\n\r\n    function getPatientDataDetails(string memory _hash) public view returns(PatientData memory _res){\r\n        require(patientDataCheckHash[msg.sender][_hash] == true, \"Invalid data\");\r\n        return patientDataDetails[_hash];\r\n    }\r\n\r\n    // <-------END PATIENT FUNCTIONS------->\r\n\r\n    // <-------START DOCTOR FUNCTIONS------->\r\n\r\n    // // SETTERS\r\n\r\n    function addDoctor(string memory _publicKey) public {\r\n        // msg.sender is doctor\r\n        require(isDoc[msg.sender] == false, \"Address is already Doctor\");\r\n        require(isPatient[msg.sender] == false, \"Address is patient\");\r\n\r\n        allDoctors.push(msg.sender);\r\n        isDoc[msg.sender] = true;\r\n\r\n        addToPublic[msg.sender] = _publicKey;\r\n        emit DoctorAdded(msg.sender);\r\n        emit PublicKey(msg.sender, _publicKey);\r\n    }\r\n\r\n    function sendPrescription(\r\n        address _patient,\r\n        string memory _filehash,\r\n        string memory _prescriptionDoctor,\r\n        string memory _prescriptionPatient\r\n    ) public {\r\n        // msg.sender is doctor\r\n        require(isDoc[msg.sender] == true, \"You are not Doctor\");\r\n        require(isPatient[_patient] == true, \"Invalid patient\");\r\n        require(doctorDataCheckHash[msg.sender][_filehash] == true, \"File not available\");\r\n        require(patientDataCheckHash[_patient][_filehash] == true, \"Invalid data hash\");\r\n        require(doctorDataDetails[_filehash].patient == _patient, \"Patient not valid\");\r\n        require(patientDataDetails[_filehash].doctor == msg.sender, \"Doctor not authorized\");\r\n        require(keccak256(abi.encodePacked(doctorDataDetails[_filehash].prescription)) == keccak256(abi.encodePacked(\"\")),\r\n        \"Prescription already added in doctor.\");\r\n        require(keccak256(abi.encodePacked(patientDataDetails[_filehash].prescription)) == keccak256(abi.encodePacked(\"\")),\r\n        \"Prescription already added in patient.\");\r\n\r\n        doctorDataDetails[_filehash].prescription = _prescriptionDoctor;\r\n\r\n        patientDataDetails[_filehash].prescription = _prescriptionPatient;\r\n\r\n    }\r\n\r\n    // GETTERS\r\n\r\n    function getAllDoctors() public view returns (address[] memory) {\r\n        return allDoctors;\r\n    }\r\n\r\n    function alDoctorsDataHash() public view returns (string[] memory) {\r\n        return doctorReceivedDataHash[msg.sender];\r\n    }\r\n\r\n    function getDoctorDataDetails(string memory _hash) public view returns(DoctorData memory _res){\r\n        require(doctorDataCheckHash[msg.sender][_hash] == true, \"Invalid data\");\r\n        return doctorDataDetails[_hash];\r\n    }\r\n\r\n    // <-------END DOCTOR FUNCTIONS------->\r\n}",
  "sourcePath": "D:\\Documents\\upwork\\healthcareDTU\\contracts\\HealthCare.sol",
  "compiler": {
    "name": "solc",
    "version": "0.6.1+commit.e6f7d5a4.Emscripten.clang"
  },
  "schemaVersion": "3.0.23",
  "updatedAt": "2020-07-13T17:15:00.788Z",
  "networkType": "ethereum",
  "devdoc": {
    "methods": {}
  },
  "userdoc": {
    "methods": {}
  }
}